:100000000C9467000C948F000C948F000C94FC09E6
:100010000C94FC090C94FC090C948F000C948F0038
:100020000C948F000C948F000C948F000C948F0014
:100030000C948F000C948F000C948F000C948F0004
:100040000C9493080C948F000C9461080C943B085A
:100050000C948F000C948F000C948F000C948F00E4
:100060000C94DD080C948F00000000002400270091
:100070002A0000000008000201000003040700003D
:100080000000000000003B0D0A0041544400000045
:1000900000002300260029000000000025002800A1
:1000A0002B000404040404040404020202020202F9
:1000B000030303030303010204081020408001022C
:1000C00004081020010204081020740AA70F11244C
:1000D0001FBECFEFD8E0DEBFCDBF25E0A8EBB2E07A
:1000E00001C01D92A431B207E1F712E0A0E0B1E037
:1000F000EEE5F4E202C005900D92A83BB107D9F7F6
:1001000010E0C6E6D0E004C02197FE010E942A104C
:10011000C536D107C9F70E94A00B0C9422120C948B
:10012000000096E0899FD0011124AB56BB4F9096FA
:100130007C936E935F9791E091969C939197E09159
:100140000205F091030590910105992339F030974C
:1001500051F0811108C08091B1040994309719F0D1
:100160005C968C91FACF0895089508950895AF9202
:10017000BF92CF92DF92EF92FF920F931F93CF9394
:10018000DF936C017B018B01040F151FEB015E01F6
:10019000AE18BF08C017D10759F06991D601ED918B
:1001A000FC910190F081E02DC6010995892B79F72A
:1001B000C501DF91CF911F910F91FF90EF90DF90DC
:1001C000CF90BF90AF900895FC01538D448D252FA3
:1001D00030E0842F90E0821B930B541710F0CF96E1
:1001E000089501970895FC01918D828D981761F013
:1001F000A28DAE0FBF2FB11D5D968C91928D9F5F2A
:100200009F73928F90E008958FEF9FEF0895FC0108
:10021000918D828D981731F0828DE80FF11D858DBB
:1002200090E008958FEF9FEF0895FC01918D228D4E
:10023000892F90E0805C9F4F821B91098F739927D3
:10024000089581EC93E00E94150121E0892B09F4C7
:1002500020E0822F089580E090E0892B29F00E9411
:10026000210181110C9400000895FC01A48DA80FB8
:10027000B92FB11DA35ABF4F2C91848D90E00196E8
:100280008F739927848FA689B7892C93A089B18908
:100290008C91837080648C93938D848D981306C0A9
:1002A0000288F389E02D80818F7D80830895EF920D
:1002B000FF920F931F93CF93DF93EC0181E0888F20
:1002C0009B8D8C8D98131AC0E889F989808185FFF0
:1002D00015C09FB7F894EE89FF896083E889F98992
:1002E00080818370806480839FBF81E090E0DF9194
:1002F000CF911F910F91FF90EF900895F62E0B8DE7
:1003000010E00F5F1F4F0F731127E02E8C8D8E11A1
:100310000CC00FB607FCFACFE889F989808185FF08
:10032000F5CFCE010E943501F1CFEB8DEC0FFD2F03
:10033000F11DE35AFF4FF0829FB7F8940B8FEA89C3
:10034000FB8980818062CFCFCF93DF93EC01888DD2
:100350008823B9F0AA89BB89E889F9898C9185FD40
:1003600003C0808186FD0DC00FB607FCF7CF8C91CE
:1003700085FFF2CF808185FFEDCFCE010E94350150
:10038000E9CFDF91CF910895833081F028F4813057
:1003900099F08230A9F008958730A9F08830C9F02B
:1003A0008430B1F4809180008F7D03C08091800003
:1003B0008F7780938000089584B58F7784BD0895EA
:1003C00084B58F7DFBCF8091B0008F778093B00094
:1003D00008958091B0008F7DF9CFCF93DF93282FC0
:1003E00030E0F901EE58FF4F8491F901EA54FF4FD4
:1003F000D491F901EE55FF4FC491CC23A1F08111A6
:100400000E94C401EC2FF0E0EE0FFF1FE257FF4FF8
:10041000A591B491EC91ED2381E090E009F480E0A6
:10042000DF91CF91089580E090E0FACF862F0C9471
:10043000ED011F93CF93DF93282F30E0F901EE58A1
:10044000FF4F8491F901EA54FF4FD491F901EE5521
:10045000FF4FC491CC23A9F0162F81110E94C40133
:10046000EC2FF0E0EE0FFF1FE856FF4FA591B4917F
:100470008FB7F894EC91111108C0D095DE23DC936E
:100480008FBFDF91CF911F910895DE2BF8CF862F7C
:10049000642F0C941902CF93DF9390E0FC01EA548F
:1004A000FF4F24918E559F4FFC0184918823C9F002
:1004B00090E0880F991FFC01E859FF4FA591B49176
:1004C000FC01E856FF4FC591D49161110DC09FB753
:1004D000F8948C91209582238C93888128232883FB
:1004E0009FBFDF91CF910895623051F49FB7F89488
:1004F0003C91822F809583238C93E8812E2BEFCF24
:100500008FB7F894EC912E2B2C938FBFEACF862FC8
:10051000642F0C944B023FB7F8948091B1039091F3
:10052000B203A091B303B091B40326B5A89B05C054
:100530002F3F19F00196A11DB11D3FBFBA2FA92F62
:10054000982F8827BC01CD01620F711D811D911D5F
:1005500042E0660F771F881F991F4A95D1F70895CB
:100560008F929F92AF92BF92CF92DF92EF92FF92C3
:100570004B015C010E948B026B017C010E948B028B
:100580006C197D098E099F09683E734081059105AC
:10059000A8F321E0821A9108A108B10888EEC80EDC
:1005A00083E0D81EE11CF11C81149104A104B10464
:1005B00029F7FF90EF90DF90CF90BF90AF909F9082
:1005C0008F9008952FB7F8946091AD037091AE03AA
:1005D0008091AF039091B0032FBF08950F931F93A5
:1005E000CF93DF93C82FD62F86E0C89FF001112448
:1005F000EB56FB4F11A2878D90A181309105F1F050
:1006000058F082309105F1F1039709F440C0DF9171
:10061000CF911F910F9108956623C9F361E070E0B7
:100620008C2F0E9491000E94E2026093ED0470936F
:10063000EE048093EF049093F004E9CF0E94E2026D
:100640000091ED041091EE042091EF043091F0043C
:10065000AB01BC01401B510B620B730B8091FF047B
:1006600090910005B0E0A0E084179507A607B707B2
:1006700048F462E070E08C2FDF91CF911F910F91D1
:100680000C94910063E070E0D111C1CFF4CF70E021
:1006900060E0F1CF20913B03260F3327331F213237
:1006A0003105ECF420918403FC0190E080E02430DB
:1006B00069F082E00895A0913B032191AC01455E71
:1006C0005C4FA40FB52FB11D2C930196861798F39C
:1006D00080913B03680F60933B0380E0089581E0C5
:1006E00008951092840381E08093830310925E0347
:1006F00061E082E10E94190261E083E10E94190237
:10070000E9EBF0E080818E7F808380818D7F808324
:1007100088E48093B80085E48093BC000895CF936B
:10072000DF9391E090931A038823B9F0C091B80049
:10073000D091BA008091BC008A7B8093BC0060E0BD
:1007400082E10E94190260E083E10E9419020E9486
:100750007103D093BA00C093B800DF91CF91089590
:100760000895E091C0038091BF03E81730F4F0E0F2
:10077000E650FD4F808190E008958FEF9FEF089540
:100780009091C0038091BF032FEF3FEF981748F47B
:10079000E92FF0E0E650FD4F208130E09F5F90931D
:1007A000C003C90108958091BF039091C003891BC4
:1007B000990B0895CF92DF92EF92FF920F931F93C0
:1007C000CF93DF937C01CB018A0120918A032223FE
:1007D00089F0EB016B01C40ED51ECC15DD0569F067
:1007E0006991D701ED91FC910190F081E02DC70155
:1007F0000995F3CF642F0E944A03C801DF91CF917E
:100800001F910F91FF90EF90DF90CF900895CF93BD
:10081000DF931F92CDB7DEB7698320918A0322232D
:10082000F9F02091BD03203258F021E030E0FC01C6
:100830003383228390E080E00F90DF91CF91089581
:100840008091BE03E82FF0E0E557FC4F998190833B
:100850008F5F8093BE038093BD0381E090E0ECCF77
:1008600061E0CE0101960E944A03F7CFCF92DF925A
:10087000EF92FF920F931F93CF93DF93FC01C481FC
:1008800021E020938A03C093AB031092BE03109221
:10089000BD038385682B8EE594E00E940704D09108
:1008A000BD03D13208F092C00E948B026B017C0123
:1008B00080918403811165C082E08093840381E08C
:1008C000809383038FEF8093820310928103D093F0
:1008D0008003ABE8B3E0E0E6F3E080E0D81385C046
:1008E00010925F0380915F03CC0FC82BC0935F030E
:1008F00080915E03813009F07CC010925E030E94FB
:100900008B026B017C0180915F038093BB0080911F
:10091000860390918703A0918803B0918903892B66
:100920008A2B8B2B99F00E948B02009186031091E9
:10093000870320918803309189036C197D098E0902
:100940009F090617170728073907E0F18091BC00B7
:1009500083FDD9CF85EC8093BC000E948B026B0194
:100960007C0180918403823009F445C08091820328
:100970008F3F61F180918203803241F18091820347
:1009800025C08091860390918703A0918803B09140
:100990008903892B8A2B8B2B09F48ACF0E948B0227
:1009A0000091860310918703209188033091890379
:1009B0006C197D098E099F09061717072807390743
:1009C00008F076CF809185030E948F031092BE03BA
:1009D0001092BD0310928A03DF91CF911F910F9166
:1009E000FF90EF90DF90CF9008959D9191938F5F4E
:1009F00075CF85EEB0CF8091860390918703A0914B
:100A00008803B0918903892B8A2B8B2B09F4A9CFFA
:100A10000E948B0200918603109187032091880326
:100A2000309189036C197D098E099F0906171707F4
:100A30002807390708F095CFC5CF2091B70330912B
:100A4000B8032817390771F49091B5038091B60364
:100A5000981741F0E091B503F0E0E654FD4F808136
:100A600090E008958FEF9FEF0895EF92FF920F931C
:100A70001F93CF93DF93DC015C96ED90FC905D9724
:100A8000E114F10479F481E090E013969C938E9345
:100A9000129790E080E0DF91CF911F910F91FF902E
:100AA000EF9008955196ED91FC91529750968C914C
:100AB0005097982F90950FB75E962C915E97122FB6
:100AC000127021FD6095F8942081112319F1282BD3
:100AD0002083E7012197F1F728E0462F50E030818D
:100AE00060FF1AC0382B3083E7012197F1F7BA0174
:100AF00075956795215089F7112381F080818923AD
:100B000080830FBF5C968D919C910197F1F781E0F6
:100B100090E0C1CF2923DCCF3923E5CF9081892B09
:100B2000EFCF0F931F93CF93DF938C01D0E0C0E002
:100B3000F801EC0FFD1F6491662341F086E794E015
:100B40000E943505892B11F02196F2CFCE01DF915D
:100B5000CF911F910F9108952091B7033091B80361
:100B60002817390771F48091B6032091B50390E0FE
:100B7000805C9F4F821B910960E470E00E9402102C
:100B8000089590E080E008952091B7033091B80374
:100B900028173907B9F49091B5038091B6039817D7
:100BA00089F0E091B503F0E0E654FD4F808120919B
:100BB000B50330E02F5F3F4F2F7333272093B503EA
:100BC00090E008958FEF9FEF08950F931F930E9479
:100BD000E20260937E0470937F048093800490937C
:100BE000810486E794E00E94C40597FF1DC00E941F
:100BF000E20200917E0410917F04209180043091E4
:100C00008104601B710B820B930B00917A0410918D
:100C10007B0420917C0430917D046017710782076A
:100C20009307F8F28FEF9FEF1F910F91089590E0D7
:100C300080E008950F931F93CF938C01C62F0E94DD
:100C400036046C2F6460C8010E9436046C2F6B7FE1
:100C5000C8010E94360483EC90E00197F1F7CF9130
:100C60001F910F9108950F931F93CF93DF938C01E2
:100C7000D62FC42F607F642B0E941A0680E1D89F74
:100C8000B00111246C2BC801DF91CF911F910F91FE
:100C90000C941A06CF93DF93CDB7DEB728970FB623
:100CA000F894DEBF0FBECDBF98E0EEE1F1E0DE01CB
:100CB000119601900D929A95E1F790910C05981775
:100CC00008F48FEF90E0880F991F21E030E02C0F9F
:100CD0003D1F820F931FFC0160816E5F606840E0E2
:100CE00084E095E028960FB6F894DEBF0FBECDBF26
:100CF000DF91CF910C94330641E00E94330681E0EE
:100D000090E00895CF93DF93EC018091700490916F
:100D100071040097E9F06881798161157105B1F07E
:100D200040917204509173042C813D814217530706
:100D300068F00E941B128C819D81909375048093B2
:100D400074041D821C82DF91CF9108950E94CC1003
:100D50008881998190937104809370048A819B812A
:100D600090937304809372048C819D819093750499
:100D700080937404198218821B821A82E2CFCF9367
:100D8000DF93EC0188819981009711F00E94CC10CB
:100D9000198218821D821C821B821A82DF91CF91D8
:100DA0000895FC0180819181009711F00C94CC1082
:100DB0000895FB0101900020E9F73197AF01461B30
:100DC000570BDC01ED91FC910280F381E02D099439
:100DD0000F931F93CF93DF93EC01FB014481558167
:100DE00060817181E881F9810280F381E02D0995AC
:100DF0008C0162E771E0CE010E94D906800F911F3D
:100E0000DF91CF911F910F9108950F931F93CF936F
:100E1000DF93EC010E94D9068C0162E771E0CE01FC
:100E20000E94D906800F911FDF91CF911F910F91E2
:100E300008950F931F93CF93DF93EC0188819981DD
:100E4000009759F02A813B812617370730F081E05F
:100E5000DF91CF911F910F9108958B016F5F7F4FAD
:100E60000E945511009759F0998388831B830A8348
:100E70002C813D81232B59F7FC011082E8CF80E0C3
:100E8000E7CFEF92FF920F931F93CF93DF936115FC
:100E9000710541F480E0DF91CF911F910F91FF9098
:100EA000EF90089541155105B1F07B01EC010C81E3
:100EB0001D81040F151FB8010E941907882351F3E3
:100EC000288139818C819D81B701820F931F0E94F7
:100ED0001B121D830C8381E0DECFEF92FF920F93F4
:100EE0001F93CF93DF93EC017B01198218821B8241
:100EF0001A821D821C82FB0101900020E9F73197C4
:100F00008F01061B170BB8010E941907811109C038
:100F1000CE01DF91CF911F910F91FF90EF900C9434
:100F2000BF061D830C83B70188819981DF91CF9122
:100F30001F910F91FF90EF900C941B12EF92FF9274
:100F40000F931F93CF93DF9300D0CDB7DEB78C0103
:100F50001092B9021092B80286E794E00E94AC05A4
:100F6000892BB9F4E090B802F090B90280EEE8164F
:100F70008EE2F80674F46DE070E080E090E00E948C
:100F8000B002EFEFEE1AFE0AF092B902E092B80258
:100F9000E3CF86E794E00E94AC05892B51F1F8017C
:100FA00011821082138212821582148270E060E036
:100FB000C8010E941907811112C0C8010E94BF0612
:100FC0000E94E50597FD15C089831A8241E050E033
:100FD000BE016F5F7F4FC8010E944107F1CFF8014A
:100FE0001582148264E771E0808191810E941B1256
:100FF000E7CFC8010F900F90DF91CF911F910F9114
:10100000FF90EF90089585ED8093BC00809186035A
:1010100090918703A0918803B09189030796A11D41
:10102000B11D23E0B695A795979587952A95D1F799
:101030002091BC0024FD03C01092840308954091C8
:101040008603509187036091880370918903452B33
:10105000462B472B69F30097A105B10541F025E325
:101060002A95F1F700000197A109B109E1CF80911C
:1010700085030C948F031F920F920FB60F921124C9
:101080002F933F934F935F936F937F938F939F9390
:10109000AF93BF93EF93FF9381EC93E00E943501F0
:1010A000FF91EF91BF91AF919F918F917F916F9140
:1010B0005F914F913F912F910F900FBE0F901F9016
:1010C00018951F920F920FB60F9211242F938F93A2
:1010D0009F93EF93FF93E091D103F091D20380812E
:1010E000E091D703F091D80382FD1BC090818091DD
:1010F000DA038F5F8F732091DB03821741F0E09159
:10110000DA03F0E0EF53FC4F958F8093DA03FF9101
:10111000EF919F918F912F910F900FBE0F901F9085
:1011200018958081F4CF1F920F920FB60F92112461
:101130002F933F938F939F93AF93BF938091AD0372
:101140009091AE03A091AF03B091B0033091AC0386
:1011500023E0230F2D3758F50196A11DB11D2093D3
:10116000AC038093AD039093AE03A093AF03B09311
:10117000B0038091B1039091B203A091B303B091F9
:10118000B4030196A11DB11D8093B1039093B203E6
:10119000A093B303B093B403BF91AF919F918F918C
:1011A0003F912F910F900FBE0F901F90189526E83A
:1011B000230F0296A11DB11DD2CF1F920F920FB621
:1011C0000F9211242F933F934F935F936F937F93CD
:1011D0008F939F93AF93BF93EF93FF938091B90049
:1011E000887F803609F44AC0F0F5883209F4A7C038
:1011F00018F5803109F49BC0B8F4882309F4F9C0CC
:10120000883009F494C0FF91EF91BF91AF919F9105
:101210008F917F916F915F914F913F912F910F909F
:101220000FBE0F901F901895883109F488C0803246
:1012300051F78093820314C0803409F49DC040F4B8
:101240008033B9F38833F9F68093820385ECB0C01C
:10125000803509F485C0883509F496C0883499F63C
:101260000E940308D0CF883909F48CC038F588373C
:1012700029F050F4883611F0803729F683E0809306
:10128000840310925D0357C0883809F47BC080390D
:1012900019F0803809F0B7CF80915D03803208F0F3
:1012A00071C0E0915D0381E08E0F80935D038091BA
:1012B000BB00F0E0E35CFC4F80833DC0803B39F035
:1012C000E0F4803A09F479C0883A09F09CCF84E0D0
:1012D0008093840310923C0310923B03E091BB0384
:1012E000F091BC03099580913B0381110FC081E00F
:1012F00080933B0310921B0309C0803C09F4A6CFE6
:10130000883C09F4A3CF883B09F07DCFE0913C03F2
:1013100081E08E0F80933C03F0E0E55EFC4F80811E
:101320008093BB0090913C0380913B0329C0809146
:101330005F038093BB0085EC8093BC0064CF9091E9
:10134000810380918003981758F5E091810381E033
:101350008E0F80938103F0E0E05AFC4F8081E9CF4B
:10136000E091810381E08E0F809381038091BB0027
:10137000F0E0E05AFC4F80839091810380918003DC
:101380009817C8F285E8D8CFE091810381E08E0FED
:10139000809381038091BB00F0E0E05AFC4F808392
:1013A0008091830381115CCF81E080935E0384EAA6
:1013B0008093BC001092840326CF85EC8093BC0000
:1013C0001092840380915D03803230F4E0915D03DC
:1013D000F0E0E35CFC4F108260915D0370E0E0910F
:1013E000B903F091BA038DE393E0099510925D0380
:1013F0000ACF1092820334CF1F920F920FB60F9232
:1014000011242F933F934F935F936F937F938F9309
:101410009F93AF93BF93EF93FF93E091B703F09146
:10142000B803309749F0A685B7858585968D91FFDD
:1014300014C09C918923A1F4FF91EF91BF91AF91CA
:101440009F918F917F916F915F914F913F912F91DC
:101450000F900FBE0F901F9018959C91892361F7F4
:10146000A389B4899C918589809589238C938689E9
:1014700097890197F1F7608D718DA685B7855585A0
:1014800038E020E0CB010197F1F7822F90E09595AD
:101490008795282F4C91452309F02068315091F70A
:1014A000868D81FD20958091B60390E001968F7323
:1014B00099273091B503381799F0A091B603B0E0A1
:1014C000A654BD4F2C938093B603828D938D0197C4
:1014D000F1F7A389B4898C919589892B8C93ACCF32
:1014E000868D8160868FF1CF1092C4031092C30362
:1014F00088EE93E0A0E0B0E08093C5039093C6032C
:10150000A093C703B093C8032AE231E03093C2032B
:101510002093C10325EC30E03093CE032093CD031C
:1015200024EC30E03093D0032093CF0320EC30E064
:101530003093D2032093D10321EC30E03093D403D5
:101540002093D30322EC30E03093D6032093D503CD
:1015500026EC30E03093D8032093D7031092DA03BF
:101560001092DB031092DC031092DD0310926104F1
:10157000109260048093620490936304A0936404C7
:10158000B09365048CE391E090935F0480935E04D4
:1015900010920705109206058AE691E090930505E2
:1015A000809304058FE38093080584E180930D0503
:1015B00084E080930E0510920F051092970410920C
:1015C0009B0410929A0410929C0480E691E0909300
:1015D000960480939504E1EBF4E08DEE94E01082A4
:1015E00014821382158236968E179F07C1F784E006
:1015F00091E09093F8048093F70480E091E0909359
:10160000FA048093F90484E08093FB048093FC0443
:1016100088E091E09093F6048093F5048AE090E0EE
:101620009093FE048093FD0484EF91E09093000575
:101630008093FF0410920305109202051092F104AA
:101640001092F2041092F3041092F4041092010527
:10165000109279041092780488EE93E0A0E0B0E054
:1016600080937A0490937B04A0937C04B0937D04D0
:101670008EE491E0909377048093760410928D0429
:1016800010928C0410928F0410928E041092910488
:10169000109290041092930410929204609194041A
:1016A0006E7F6D7F609394046695617081E068271A
:1016B0008BE00E94190261E08BE00E944B02E1EC9A
:1016C000F0E0E491E0938604EDEAF0E0E491F0E0EC
:1016D000EE0FFF1FE856FF4F859194919093880479
:1016E0008093870460E08AE00E944B02809194041A
:1016F00081FD04C061E08AE00E9419028AE08093C3
:101700008204E0ECF0E0E491E0938304ECEAF0E0A2
:10171000E491F0E0EE0FFF1FE257FF4F85919491A7
:10172000909385048093840464E771E080E794E0FB
:101730000E946D0765E771E08AE694E00C946D07FE
:10174000CF93DF93CDB7DEB72C970FB6F894DEBFFB
:101750000FBECDBF789484B5826084BD84B58160AE
:1017600084BD85B5826085BD85B5816085BD80916C
:101770006E00816080936E001092810080918100E4
:1017800082608093810080918100816080938100DC
:10179000809180008160809380008091B10084609E
:1017A0008093B1008091B00081608093B0008091FF
:1017B0007A00846080937A0080917A0082608093BE
:1017C0007A0080917A00816080937A0080917A001B
:1017D000806880937A001092C100E091D103F0916B
:1017E000D20382E08083E091CD03F091CE0310829A
:1017F000E091CF03F091D0038FEC80831092D90356
:10180000E091D503F091D60386E08083E091D30385
:10181000F091D403808180618083E091D303F091C3
:10182000D403808188608083E091D303F091D40356
:10183000808180688083E091D303F091D40380811C
:101840008F7D808362E370E080E794E00E94190757
:1018500062E871E081EC93E00E9405071092910428
:101860001092900410928F0410928E0410928D04A6
:1018700010928C048DE991E09093930480939204EC
:1018800090918204963108F047C02DEB30E0309300
:101890008D0420938C042BE931E030938F04209346
:1018A0008E042CE231E03093910420939004209137
:1018B000680084E0983048F031E09E3008F430E071
:1018C00081E001C0880F3A95EAF7822B8093680087
:1018D0002DE630E0983050F02BE630E09E3030F0CE
:1018E0002CE630E0963110F030E020E030938A04AE
:1018F00020938904292F30E0983008F017C181E047
:1019000001C0880F9A95EAF780938B048091920426
:10191000909193040197F1F7809190049091910434
:10192000892B49F1E091B703F091B80354E0E63711
:10193000F50709F1309739F0A389B4899C9185891D
:10194000809589238C93809194048E7F8093940456
:101950001092B6031092B50386E794E09093B80313
:101960008093B703E0918904F0918A04808190917B
:101970008B04892B808368EE73E080E090E00E9406
:10198000B00264E971E081EC93E00E9405071092D7
:10199000C0031092BF031092BE031092BD030E94B9
:1019A000710384EB90E09093BC038093BB0385EBC1
:1019B00090E09093BA038093B90310920905809147
:1019C0000E05823018F098E09093090580930C057D
:1019D00062E370E080E090E00E94B00260910F0549
:1019E00084E095E00E94360468EE73E080E090E0C9
:1019F0000E94B00260E384E095E00E941A060BE4C6
:101A000016E4C8010197F1F760E384E095E00E94D5
:101A10001A06C8010197F1F760E384E095E00E949F
:101A20001A0683E592E00197F1F760E284E095E021
:101A30000E941A0660910905606240E084E095E02A
:101A40000E94330684E080930A0540E06CE084E065
:101A500095E00E94330640E061E084E095E00E945A
:101A600033060BE31FE1C8010197F1F782E0809391
:101A70000B0540E066E084E095E00E94330640E01C
:101A800062E084E095E00E943306C8010197F1F717
:101A900088E080930F0560E084E095E00E943604C2
:101AA000412C512C3201439440E0A42E40E0B42E4E
:101AB00081EC93E00E941501181619060CF0BAC0CB
:101AC00081EC93E00E94F3008237910509F4F2C0A3
:101AD00083379105C1F18336910509F0ABC08AE8DF
:101AE00090E00E94910540916E0450916F046091C6
:101AF0006A0470916B0486E794E00E94B70086E860
:101B000090E00E949105CE0101960E949E07CE01B1
:101B100001960E948206CE0101960E94D10660E7DE
:101B200074E081EC93E00E94E80684C09E3040F4AB
:101B30002850310981E001C0880F2A95EAF7E4CEE8
:101B40002E503109F7CF6DE072E086E794E00E94F5
:101B5000050768EC70E080E090E00E94B00267E169
:101B600072E0CE0101960E946D0740916E04509183
:101B70006F0460916A0470916B04CE0101960E941B
:101B80004107811104C0CE0101960E94BF0642E0C8
:101B900050E061E272E0CE0101960E94410781119E
:101BA00004C0CE0101960E94BF06BE016F5F7F4F49
:101BB00086E794E00E94E806CE0101960E94D106D5
:101BC00068EC70E080E090E00E94B00264E272E0B5
:101BD000CE0107960E946D07BE01695F7F4F86E7C1
:101BE00094E00E94E80664E670E080E090E00E94E5
:101BF000B0026AE186E794E00E94350562E771E091
:101C000086E794E00E94D90668EC70E080E090E0FE
:101C10000E94B002CE0101960E949E07CE0101965D
:101C20000E948206CE0101960E94D106CE0107963F
:101C30000E94D10686E794E00E94AC0518161906AA
:101C40004CF486E794E00E94C405682F81EC93E091
:101C50000E94570181E0809301050E94E2020091F9
:101C6000F1041091F2042091F3043091F404AB01DB
:101C7000BC01401B510B620B730B8091FD049091D2
:101C8000FE04B0E0A0E084179507A607B70708F0A8
:101C90004EC110E08091FB04181788F5E091F7041D
:101CA000F091F804E10FF11D62E080810E944B0287
:101CB0001F5FF0CF63E672E081EC93E00E940507BE
:101CC0006DE072E086E794E00E94050768EC70E042
:101CD00080E090E00E94B00267E772E086E794E05F
:101CE0000E94050768EC70E080E090E00E94B0027E
:101CF00069E872E081EC93E00E94D9069BCF312C19
:101D00008091FC04381608F061C0E32CF12CE091BE
:101D1000F904F091FA04EE0DFF1D61E080810E944C
:101D20004B02E091F904F091FA04EE0DFF1D60E022
:101D300080810E941902D301C201032C04C0880FC4
:101D4000991FAA1FBB1F0A94D2F74C016C01C094C3
:101D5000D094212C8091FB04281608F5022D10E068
:101D6000E091F704F091F804E00FF11F80810E94E8
:101D7000ED010C5F1F4F000F111FF801EB56FB4FD9
:101D8000892B41F4808191818829992991838083CD
:101D90002394E0CF808191818C219D21F7CFE09128
:101DA000F904F091FA04EE0DFF1D61E080810E94BC
:101DB00019028091F9049091FA04E80EF91E60E08E
:101DC000F70180810E944B0233949ACF05E914E019
:101DD0007801F701878D90A1892B31F4148E8FEF54
:101DE0009FEF968F858F11A296E0E90EF11CE1ED31
:101DF000EE16E4E0FE0669F7912C8091FB0498163C
:101E000008F053C0812CC92CD12CCC0CDD1CC60190
:101E100083569B4F6C012091FC04821608F043C04E
:101E2000F60160817181082C02C0769567950A944D
:101E3000E2F7929E90011124280D311DE5E9F4E0AE
:101E400080E0458D568D2417350709F47EC08F5FDD
:101E500036968A30B1F760FF24C0E5E9F4E090E0FF
:101E600080E0448D411118C0E091F504F091F60432
:101E7000E20FF31F408156E0589FF001599FF00D8B
:101E80001124EB56FB4F448F368F258F10A2178EEF
:101E900061E00E94EE0205C0019636968A309105F7
:101EA00001F78394B8CF9394A8CFD12CF80181A1E6
:101EB0008111D82E0A5F1F4FE016F106B9F70E9474
:101EC000E2026093F1047093F2048093F304909320
:101ED000F404DD2061F18091B604882341F1809102
:101EE000B4049091B504019711F56091B1046111AA
:101EF00021C080E00E944A066DE972E084E095E02E
:101F00000E94D90681E00E944A066AEA72E084E0F3
:101F100095E00E94D906A114B10409F4C9CD0E942C
:101F20002101882309F4C4CD0E940000C1CD109284
:101F30000105DFCF81EC93E00E94570162E771E079
:101F400081EC93E00E94D906D4CF6170A2CF8AE6DB
:101F500094E00E94D10680E794E00E94D1068EE4CE
:101F600091E090937704809376048091B7039091E9
:101F7000B8038657944071F4E0918904F0918A0483
:101F8000908180918B048095892380831092B8037F
:101F90001092B70308952F923F924F925F926F92E3
:101FA0007F928F929F92AF92BF92CF92DF92EF92E9
:101FB000FF920F931F93CF93DF93CDB7DEB7CA1B6A
:101FC000DB0B0FB6F894DEBF0FBECDBF09942A8895
:101FD000398848885F846E847D848C849B84AA843D
:101FE000B984C884DF80EE80FD800C811B81AA81CA
:101FF000B981CE0FD11D0FB6F894DEBF0FBECDBF95
:10200000ED01089597FB072E16F4009407D077FD95
:1020100009D00E94161007FC05D03EF490958195DA
:102020009F4F0895709561957F4F0895AA1BBB1B24
:1020300051E107C0AA1FBB1FA617B70710F0A61BC8
:10204000B70B881F991F5A95A9F780959095BC01E9
:10205000CD010895EE0FFF1F0590F491E02D099436
:102060000F931F93CF93DF938230910510F482E09A
:1020700090E0E0911205F091130530E020E0B0E02F
:10208000A0E0309799F42115310509F44AC0281BC6
:10209000390B24303105D8F58A819B816115710592
:1020A00089F1FB0193838283FE0111C0408151813C
:1020B0000281138148175907E0F04817590799F42E
:1020C000109761F012960C93129713961C93329608
:1020D000CF01DF91CF911F910F91089500931205C9
:1020E00010931305F4CF2115310551F04217530712
:1020F00038F0A901DB019A01BD01DF01F801C1CF70
:10210000EF01F9CF9093130580931205CDCFFE0117
:10211000E20FF31F81939193225031093983288371
:10212000D7CF2091100530911105232B41F4209138
:102130001A0130911B013093110520931005209155
:102140001801309119012115310541F42DB73EB721
:1021500040911C0150911D01241B350BE09110058D
:10216000F0911105E217F307A0F42E1B3F0B28177F
:10217000390778F0AC014E5F5F4F2417350748F000
:102180004E0F5F1F5093110540931005819391935B
:102190009FCFF0E0E0E09CCFCF93DF930097E9F092
:1021A000FC01329713821282A0911205B09113059F
:1021B000ED0130E020E01097A1F420813181820F01
:1021C000931F20911005309111052817390709F048
:1021D00061C0F0931105E0931005DF91CF91089550
:1021E000EA01CE17DF07E8F54A815B819E014115C0
:1021F0005105B1F7E901FB83EA8349915991C40F75
:10220000D51FEC17FD0761F4808191810296840F40
:10221000951FE90199838883828193819B838A83B7
:10222000F0E0E0E012968D919C9113970097B9F53C
:102230002D913C911197CD010296820F931F209111
:102240001005309111052817390739F6309751F5E7
:102250001092130510921205B0931105A09310056A
:10226000BCCFD383C28340815181840F951FC8178F
:10227000D90761F44E5F5F4F88819981480F591FDC
:10228000518340838A819B81938382832115310509
:1022900009F0B0CFF0931305E09312059ECFFD0136
:1022A000DC01C0CF13821282D7CFB0E0A0E0EBE513
:1022B000F1E10C94CD0F8C01009751F4CB010E94F9
:1022C00030108C01C801CDB7DEB7E0E10C94E90F06
:1022D000FC01E60FF71F9C0122503109E217F307BA
:1022E00008F49DC0D901CD91DC911197C617D7078D
:1022F00098F0C530D10530F3CE01049786179707C3
:1023000008F3C61BD70B2297C193D1936D937C938F
:10231000CF010E94CC10D6CF5B01AC1ABD0A4C0194
:102320008C0E9D1EA0911205B0911305512C412CCD
:10233000F12CE12C109731F5809110059091110549
:102340008815990509F05CC04616570608F058C074
:102350008091180190911901009741F48DB79EB7B3
:1023600040911C0150911D01841B950BE817F90742
:1023700008F055C0F0931105E0931005F901718341
:102380006083A0CF8D919C91119712966C901297BB
:1023900013967C901397A815B90559F56C0142E086
:1023A000C40ED11CCA14DB0420F1AC014A195B092C
:1023B000DA011296159780F062827382518340830E
:1023C000D9016D937C93E114F10471F0D701139658
:1023D000FC93EE93129776CF22968C0F9D1FF901F6
:1023E00091838083F301EFCFF0931305E0931205FF
:1023F00069CF4816590608F42C017D01D3019ACF04
:10240000CB010E9430107C01009749F0AE01B80169
:102410000E941212C8010E94CC10870153CF10E015
:1024200000E050CFFB01DC0102C001900D92415051
:102430005040D8F70895FB01DC0101900D92002077
:10244000E1F7089510E0C6E6D0E004C0FE010E9466
:0E2450002A102196C736D107C9F7F894FFCF9E
:10245E00050403020908070631323341343536428A
:10246E00373839432A302344000014058000000019
:10247E00400014005400000000005701B700E400B3
:10248E00A4011501F3000701000000000704DA03A0
:10249E001706B003D303C003B103000000003505D7
:1024AE00B7001706B003AC05C4051D0500000000FB
:1024BE00870247021602000000007C06B7001706CE
:1024CE00B6000D0A002B34383732343131393632FA
:1024DE00350053697374656D20537461727465644D
:1024EE002E2E2E0041627920777973C58261C487C2
:1024FE0020736D73206E616369C59B6E696A20617E
:10250E002C20616279206F6465627261C4872073CA
:10251E006D73206E616369C59B6E696A20622C20A3
:10252E00616279207A61647A776F6E69C487206EF2
:10253E00616369C59B6E696A20632C206162792094
:10254E006F6465627261C48720706FC582C48563D3
:10255E007A656E6965206E616369C59B0041542B77
:10256E00434D47463D310041542B434D47533D2289
:10257E0000220D0048656C6C6F2C20686F7720610F
:10258E00726520796F753F206772656574696E6735
:10259E00732066726F6D205A69656C696E736B6914
:1025AE0065676F2061726475696E6F206D617374FB
:1025BE0065720053494D3830304C205265616420AD
:1025CE00616E20534D530041542B434E4D493D31C6
:1025DE002C322C302C302C3000556E7265616420FC
:1025EE004D65737361676520646F6E650048656C39
:1025FE006C6F20576F726C6421004C4344207475CD
:08260E00746F7269616C000039
:00000001FF
